:020000040000FA
:060000000A128A11122809
:10000800FE00030E83120313CF000408D0000A0871
:10001800D1007F08D2000A128A11632F0A128A11AE
:1000280015280A128A15C2240A128A11E4000A1233
:100038008A15C3240A128A11E5000A128A15C424F3
:100048000A128A11E6008313203084004D300A1208
:100058008A15D9240A128A11FB01FC01FD018301CA
:100068000A128A11E22DFF0000308A007F088207F9
:100078003C283D280A128A11AC2B0A128A11F52A4B
:100088000A128A15322FFF0000308A007F08820783
:100098004C280A128A11262A83120313D7002B2907
:1000A8005403031D5828592869280130D500530ADC
:1000B8005F280310D50DFF3E031D5D285508D600A7
:1000C800560883160313850444295408031D6D2814
:1000D8006E2844290130D500530A74280310D50D21
:1000E800FF3E031D72285508FF3AD60056088316AE
:1000F8000313850544295403031D83288428942861
:100108000130D500530A8A280310D50DFF3E031D80
:1001180088285508D60056088316031386044429F0
:100128005408031D9828992844290130D500530AFA
:100138009F280310D50DFF3E031D9D285508FF3A43
:10014800D600560883160313860544295403031D55
:10015800AE28AF28BF280130D500530AB5280310B0
:10016800D50DFF3E031DB3285508D6005608831643
:100178000313870444295408031DC328C4284429A9
:100188000130D500530ACA280310D50DFF3E031DC0
:10019800C8285508FF3AD600560883160313870562
:1001A80044295403031DD928DA28EA280130D50048
:1001B800530AE0280310D50DFF3E031DDE2855081D
:1001C800D600560883160313880444295408031DCF
:1001D800EE28EF2844290130D500530AF5280310EA
:1001E800D50DFF3E031DF3285508FF3AD6005608E3
:1001F80083160313880544295403031D042905297C
:1002080015290130D500530A0B290310D50DFF3EDF
:10021800031D09295508D6005608831603138904B7
:1002280044295408031D19291A2944290130D500E5
:10023800530A20290310D50DFF3E031D1E2955081A
:10024800FF3AD60056088316031389054429570830
:10025800D500D6015608003A031933294429550810
:10026800003A03195428013A03197F28033A03195D
:10027800AA28013A0319D528073A0319002944295D
:10028800080083120313D7000C2A5403031D4D29B9
:100298004E295C290130D500530A54290310D50D85
:1002A800FF3E031D52295508D60056088504252A05
:1002B8005408031D60296129252A0130D500530AF5
:1002C80067290310D50DFF3E031D65295508FF3A20
:1002D800D60056088505252A5403031D7429752957
:1002E80083290130D500530A7B290310D50DFF3E21
:1002F800031D79295508D60056088604252A54086E
:10030800031D87298829252A0130D500530A8E29FB
:100318000310D50DFF3E031D8C295508FF3AD60062
:1003280056088605252A5403031D9B299C29AA29BA
:100338000130D500530AA2290310D50DFF3E031D35
:10034800A0295508D60056088704252A5408031DF5
:10035800AE29AF29252A0130D500530AB529031043
:10036800D50DFF3E031DB3295508FF3AD6005608A0
:100378008705252A5403031DC229C329D129013021
:10038800D500530AC9290310D50DFF3E031DC729FF
:100398005508D60056088804252A5408031DD5296F
:1003A800D629252A0130D500530ADC290310D50D9A
:1003B800FF3E031DDA295508FF3AD600560888057E
:1003C800252A5403031DE929EA29F8290130D50013
:1003D800530AF0290310D50DFF3E031DEE295508D9
:1003E800D60056088904252A5408031DFC29FD292E
:1003F800252A0130D500530A032A0310D50DFF3EE4
:10040800031D012A5508FF3AD60056088905252AF2
:100418005708D500D6015608003A0319142A252A88
:100428005508003A03194929013A03197029033A72
:1004380003199729013A0319BE29073A0319E5292F
:10044800252A0800FA010D30F4007408F0007A0833
:100458000A128A1545250A128A11203E8400831340
:1004680000080319382A392AEA2A0D30F4007408DA
:10047800F0007A080A128A1545250A128A11213EC7
:10048800840083130008F500840A0008F600840A33
:100498000008F700840A0008F80078087704760452
:1004A8007504031D582A592ACA2A0D30F400740805
:1004B800F0007A080A128A1545250A128A11293E7F
:1004C8008400013083138007840A00300318013E3A
:1004D800031D8007840A00300318013E031D8007AE
:1004E800840A00300318013E80070D30F4007408B8
:1004F800F0007A080A128A1545250A128A11253E43
:10050800840083130008F500840A0008F600840AB2
:100518000008F700840A0008F800780877047604D1
:1005280075040319982A992AEA2A0D30F4007408E8
:10053800F0007A080A128A1545250A128A11253E02
:10054800840083130008F500840A0008F600840A72
:100558000008F700840A0008F8000D30F90079084F
:10056800F0007A080A128A1545250A128A11213ED6
:100578008400750883138000840A76088000840A42
:1005880077088000840A78088000EA2A0D30F40091
:100598007408F0007A080A128A1545250A128A1189
:1005A800213E8400013083138002840A0030031C3A
:1005B80001308002840A0030031C01308002840A62
:1005C8000030031C01308002033084020130F40043
:1005D8007408FA0703307A02031CF32AF42A272A3C
:1005E8000800023083120313DA005A08D6000130DB
:1005F8000A128A15A1250A128A11003A031D052B31
:10060800062B412B831203134C08031D0C2B0D2BB7
:10061800412BCB01CB0AC701C801CC01CC0A650824
:10062800053EDA00003003180130DB005B08803A31
:10063800FF0080307F02031D232B50305A0203181D
:10064800262B272B882B831203136508053EDA0017
:100658005A08D50000300A128A158A260A128A1109
:10066800053083120313DA005A08E50765080A12F1
:100678008A15FC240A128A11882B83120313D601C7
:10068800D60A01300A128A15A1250A128A11003ADF
:10069800031D4F2B502B882B831203134C08031D6B
:1006A800562B572B882BCB01CB0AC701C801CC018D
:1006B800CC0A6508FB3EDA00FF3003180030DB0087
:1006C8005B08803AFF0080307F02031D6D2B1F30CE
:1006D8005A02031C702B712B882B83120313650895
:1006E800FB3EDA005A08D50000300A128A158A261D
:1006F8000A128A11053083120313E50265080A12EB
:100708008A15FC240A128A11023083120313DA00B4
:100718005A08D60001300A128A15A1250A128A1130
:10072800003A0319982B992BAB2B83120313D6018C
:10073800D60A01300A128A15A1250A128A11003A2E
:100748000319A72BA82BAB2B83120313CC0108008A
:10075800831203136608031DB22BB32BCC2B023074
:10076800DB005B08D300D40100300A128A1145214E
:100778000A128A11033083120313DB005B08D300CB
:10078800D40100300A128A1145210A128A115E2CFE
:100798000A30D3000030D4004A08D6004908D500F2
:1007A8000A128A15F6260A128A11831203135308AD
:1007B800DB005B08DC000A30D3000030D4004A08B4
:1007C800D6004908D5000A128A1570270A128A111C
:1007D800831203135308DB005B08DD000330DB00E2
:1007E8005B08D60000300A128A15A1250A128A1160
:1007F800013A031D002C012C302C03308312031303
:10080800DB005B08D300D40100300A128A114521AD
:100818000A128A11023083120313DB005B08D3002B
:10082800D401D40A00300A128A1145210A128A1109
:10083800831203135D080A128A11BD270A128A114E
:1008480083120313DB005B08D60003300A128A15F3
:100858005D260A128A115E2C023083120313DB0014
:100868005B08D300D40100300A128A1145210A120C
:100878008A11033083120313DB005B08D300D40111
:10088800D40A00300A128A1145210A128A118312E9
:1008980003135C080A128A11BD270A128A118312EF
:1008A8000313DB005B08D60003300A128A155D26A5
:1008B8000A128A11080083120313E3010D30DE00C7
:1008C8005E08D30063080A128A1571250A128A1174
:1008D800293E84008313000883120313DF00840A6F
:1008E8000008E000840A0008E100840A0008E20029
:1008F8006208610460045F040319832C842CE32CD0
:100908000D30DE005E08D30063080A128A157125CF
:100918000A128A11203E8400831300080A128A11E1
:1009280037200A128A110D3083120313DE005E0885
:10093800D30063080A128A1571250A128A11293E02
:100948008400013083138002840A0030031C0130C4
:100958008002840A0030031C01308002840A0030BF
:10096800031C01308002033084020D30831203130C
:10097800DE005E08D30063080A128A1571250A1280
:100988008A11253E84008313000883120313DF00B5
:10099800840A0008E000840A0008E100840A0008CC
:1009A800E2006208610460045F04031DDC2CDD2C96
:1009B800E32C63080A128A117C250A128A11013075
:1009C80083120313DE005E08E30703306302031C8F
:1009D800EE2CEF2C622C080083120313E100E201D5
:1009E800F92C0130DF005F08E2070D30DF005F08F7
:1009F800D30062080A128A1571250A128A11203E4C
:100A080084008313000803190A2D0B2D132D0330BE
:100A1800831203136202031C122D132DF52C0330CD
:100A2800831203136206031D1A2D1B2D1C2D7B2D0B
:100A38006108DF000D30E0006008D30062080A1288
:100A48008A1571250A128A11203E84008312031325
:100A58005F08831380000D30DF005F08D300620851
:100A68000A128A1571250A128A11213E84008312FE
:100A78000313570883138000840A58088000840AE7
:100A880059088000840A5A0880000D30DF005F088A
:100A9800D30062080A128A1571250A128A11253EA6
:100AA8008400831203135B0883138000840A5C08A4
:100AB8008000840A5D088000840A5E0880000D308A
:100AC800DF005F08D30062080A128A1571250A122E
:100AD8008A11293E8400003083138000840A003084
:100AE8008000840A00308000840A003080000800FA
:100AF80083120313D800033058020318842D852D60
:100B0800E12D0D30D7005708D30058080A128A156E
:100B180071250A128A11203E8400831380010D304A
:100B280083120313D7005708D30058080A128A15EE
:100B380071250A128A11213E840000308313800037
:100B4800840A00308000840A00308000840A003063
:100B580080000D3083120313D7005708D3005808BC
:100B68000A128A1571250A128A11253E840000305E
:100B780083138000840A00308000840A00308000DB
:100B8800840A003080000D3083120313D700570801
:100B9800D30058080A128A1571250A128A11293EAB
:100BA8008400003083138000840A00308000840AA7
:100BB80000308000840A0030800008000A128A157C
:100BC800BB250A128A110A128A1531260A128A11BD
:100BD8000A128A11AC260A128A110A128A150826E4
:100BE8000A128A11003083120313DA000030D90088
:100BF8000030D8001430D7000030DE000030DD00AF
:100C08000030DC001430DB0005300A128A11F024B1
:100C18000A128A11003083120313DA000030D90057
:100C28000030D8000030D7000030DE000030DD0092
:100C38000330DC00E830DB0008300A128A11F024A7
:100C48000A128A11003083120313DA000030D90027
:100C58000030D8000530D7000030DE000030DD005D
:100C68000030DC000530DB0002300A128A11F02463
:100C78000A128A110A128A115F240A128A113E2E58
:100C88000A128A11122883160313811281117C2EED
:100C980083160313011081100111A22E831603136A
:100CA800011481100111A22E83160313011081145F
:100CB8000111A22E83160313011481140111A22E0F
:100CC80083160313011081100115A22E8316031336
:100CD800011481100115A22E83160313011081142B
:100CE8000115A22E83160313011481140115A22ED7
:100CF800831203135408003A0319862E013A031984
:100D08009D2EA22E5308023A03194C2E063A0319B7
:100D1800522E0C3A0319582E183A03195E2E303AFF
:100D28000319642E603A03196A2EC03A0319702E0B
:100D3800A22E5308003A0319762EA22E83125508C4
:100D48000319A72EA82EAB2E0B178B178B1608008E
:100D5800023083120313DA005A08D300D401D40AEC
:100D680001300A128A1150200A128A1183120313C1
:100D7800D301D30AD401D40A01300A128A115020AF
:100D88000A128A1100300A128A15B6270A128A1125
:100D980083120313DA005A08E50023306502031CA6
:100DA800D62ED72EF52E4C3065020318DC2EDD2EFC
:100DB800F52E0530D3000030D4006508DA00DB01D9
:100DC8005A08D5005B08D6000A128A1108270A12A9
:100DD8008A1183120313530854040319F42EF52EB1
:100DE800F92E3C30DA005A08E50001300A128A155B
:100DF800C9240A128A118312031365080A128A1574
:100E0800FC240A128A11080083120313D901D61F81
:100E18000E2F0F2F162FD509D609D50A0319D60A72
:100E2800D901D90AD41F192F1A2F1F2FD309D40972
:100E3800D30A0319D40A530854040319242F252F5D
:100E4800542FD801D80A332F01300310D30DD40DF5
:100E5800FF3E031D292F0130D7005708D807D41F9C
:100E6800362F372F282F54085602031D3D2F5308BD
:100E78005502031C402F412F472F5308D502540811
:100E8800031CD603D60201300310D40CD30CFF3E4A
:100E9800031D482F0130D802031D532F542F372F1D
:100EA80059080319582F592F5E2FD509D609D50A85
:100EB8000319D60A5608D4005508D30008000B1D9C
:100EC800662F672F6E2F0B117D080A128A11472093
:100ED8000A128A11831203130C08CD0000300C1873
:100EE8000130013E792F0310CD0CFF3E031D772FF3
:100EF8004D1C7F2F802F912F0130CD0000300C1812
:100F08000130013E892F0310CD0DFF3E031D872FB1
:100F18004D08FF3ACE004E088C050C08CD00003075
:100F28008C180130013E9A2F0310CD0CFF3E031D93
:100F3800982F4D1CA02FA12FB22F0130CD000030CB
:100F48008C180130013EAA2F0310CD0DFF3E031D62
:100F5800A82F4D08FF3ACE004E088C055208FF0016
:100F680051088A00500884004F0E8300FE0E7E0E42
:100F7800090083120313D500D72F3F30FF2F063007
:100F8800FF2F5B30FF2F4F30FF2F6630FF2F6D3064
:100F9800FF2F7D30FF2F0730FF2F7F30FF2F6F305F
:100FA800FF2F0030FF2F5508D300D4015408003A12
:100FB8000319DF2FD52F5308003A0319C12F013A1F
:100FC8000319C32F033A0319C52F013A0319C72F71
:100FD800073A0319C92F013A0319CB2F033A03190A
:100FE800CD2F013A0319CF2F0F3A0319D12F013A08
:080FF8000319D32FD52F0800C7
:10198400FF343C34013483120313660808008312C5
:101994000313D4005408D3005308E600080083124C
:1019A4000313D4005408D3005308FD000800640056
:1019B4008001840A0406031900340406DA2C0A128E
:1019C4008A1513250A128A15831603139114080025
:1019D4000A128A1513250A128A1583160313111481
:1019E40008000A128A1513250A128A15831603138E
:1019F4001115080083120313D5005508D300D40130
:101A04005308C9005408CA0008008316031391162A
:101A14000A128A1513250A128A158316031311163E
:101A24000800831603131419182D192D132D1108EA
:101A34001F39031D1E2D1F2D132D080083120313A0
:101A4400D3000A128A1513250A128A158312031366
:101A5400530893008C1D2F2D302D2C2D8C11080034
:101A640083120313D3000A128A1513250A128A1546
:101A7400031483120313530D93008C1D422D432D25
:101A84003F2D8C110800F200F301721C4A2D4B2DDE
:101A94004F2D7008F1007108F3070310F00D0310C7
:101AA400F20C7208031D572D582D472D730808009A
:101AB4000A128A1513250A128A158316031391151F
:101AC40083128C1D662D672D622D8C110A128A15C6
:101AD40013250A128A1583120313130808008312AC
:101AE4000313D600D501561C782D792D7D2D53086E
:101AF400D4005408D5070310D30D0310D60C560890
:101B0400031D852D862D752D55080800831203139A
:101B1400D4000A128A1513250A128A158312031394
:101B24005408D300530793008C1D992D9A2D962D9C
:101B34008C11003083160313111B0130080083122B
:101B44000313D80058080A128A15DF250A128A15C9
:101B540083120313D7005708D9005908D700560A2F
:101B6400B52D0310D70CFF3E031DB32D57080139C3
:101B7400080083120313D30103300A128A15BF2607
:101B84000A128A15023083120313D8005808D300AE
:101B9400D40100300A128A1150200A128A15033027
:101BA40083120313D8005808D300D40100300A125A
:101BB4008A1150200A128A15080083120313D500D3
:101BC400ED2D0508072E0608072E0708072E08081E
:101BD400072E0908072E5508D300D4015408003AEB
:101BE4000319F52D062E5308003A0319E32D013A83
:101BF4000319E52D033A0319E72D013A0319E92DD9
:101C0400073A0319EB2D062E003008008312031344
:101C1400DA015A080A128A117C250A128A1501303F
:101C240083120313D9005908DA0703305A02031C3C
:101C34001C2E1D2E0B2E01300A128A15D1240A12D5
:101C44008A15083083120313D3000030D400D50161
:101C5400D50A0A128A1147260A128A150800033087
:101C640083120313D8005808D300D401D40A0230D5
:101C74000A128A1150200A128A150430831203139F
:101C8400D8005808D300D401D40A02300A128A11A9
:101C940050200A128A1583160313910194018312AA
:101CA400031394169415141194101410CF30831642
:101CB40003139300080083120313D900702E5608EF
:101CC4008500892E56088600892E56088700892E9D
:101CD40056088800892E56088900892E5908D7008D
:101CE400D8015808003A0319782E892E5708003A6B
:101CF4000319612E013A0319642E033A0319672E5E
:101D0400013A03196A2E073A03196D2E892E080029
:101D140083120313D6000A128A15EA240A128A15BA
:101D2400982E0A128A15E1240A128A1550300A12D2
:101D34008A1588250A128A15003A031DA22EA32E9D
:101D4400932E00300A128A1520250A128A1583124E
:101D5400031356080A128A1520250A128A158312BB
:101D6400031355080A128A1520250A128A150A1225
:101D74008A15F3240A128A15080083120313D60065
:101D8400DC2E5308831603138500F52E530883169F
:101D940003138600F52E5308831603138700F52ECC
:101DA4005308831603138800F52E53088316031370
:101DB4008900F52E5608D400D5015508003A0319B8
:101DC400E42EF52E5408003A0319C32E013A0319E0
:101DD400C82E033A0319CD2E013A0319D22E073A1D
:101DE4000319D72EF52E0800831203135308540445
:101DF4000319FD2EFE2E2D2FD801D80A0C2F0130E9
:101E04000310D30DD40DFF3E031D022F0130D70064
:101E14005708D807D41F0F2F102F012F540856022C
:101E2400031D162F53085502031C192F1A2F202F98
:101E34005308D5025408031CD603D60201300310FC
:101E4400D40CD30CFF3E031D212F0130D802031DF7
:101E54002C2F2D2F102F5608D4005508D30008001E
:101E64000030831203134802063003194702031C8F
:101E74003C2F3D2F462F4B03031D412F422F462F4E
:101E8400CB01C701C8016F2F4B0803194A2F4B2FF1
:101E9400692F0130C7070318C80A0030C8070A129F
:101EA4008A15C5240A128A15013A031D5A2F5B2F7D
:101EB400622F00300A128A15C9240A128A156F2F5C
:101EC40001300A128A15C9240A128A156F2F0130AB
:101ED4000A128A15C9240A128A15080083120313E8
:101EE400D801D901530854040319792F7A2FB12F3B
:101EF400DA01DA0A882F01300310D30DD40DFF3E26
:101F0400031D7E2F0130D7005708DA07D41F8B2F0B
:101F14008C2F7D2F01300310D80DD90DFF3E031DEA
:101F24008D2F54085602031D992F53085502031C84
:101F34009C2F9D2FA42F5308D5025408031CD603AD
:101F4400D602581401300310D40CD30CFF3E031DE9
:101F5400A52F0130DA02031DB02FB12F8C2F5908A1
:101F6400D4005808D300080083120313D6000A12C1
:101F74008A15EA240A128A15C42F0A128A15E12442
:101F84000A128A1550300A128A1588250A128A15EF
:101F9400003A031DCE2FCF2FBF2F00300A128A150F
:101FA40020250A128A158312031356080A128A1569
:101FB40020250A128A150A128A15E1240A128A15A2
:101FC40050300A128A1532250A128A150A128A1505
:101FD4005A250A128A1583120313D5005508D7000F
:101FE4000A128A1507250A128A150A128A15F32479
:0C1FF4000A128A15831203135708080014
:02400E00723FFF
:00000001FF
