:020000040000FA
:060000000A128A11122809
:10000800FE00030E83120313CF000408D0000A0871
:10001800D1007F08D2000A128A11642F0A128A11AD
:1000280015280A128A1548240A128A11E4000A12AD
:100038008A1549240A128A11E5000A128A154A24E7
:100048000A128A11E6008313203084004D300A1208
:100058008A155F240A128A11FB01FC01FD01830144
:100068000A128A114F2EFF0000308A007F0882078B
:100078003C283D280A128A11B42B0A128A11F52A43
:100088000A128A110A2FFF0000308A007F088207AF
:100098004C280A128A11262A83120313D7002B2907
:1000A8005403031D5828592869280130D500530ADC
:1000B8005F280310D50DFF3E031D5D285508D600A7
:1000C800560883160313850444295408031D6D2814
:1000D8006E2844290130D500530A74280310D50D21
:1000E800FF3E031D72285508FF3AD60056088316AE
:1000F8000313850544295403031D83288428942861
:100108000130D500530A8A280310D50DFF3E031D80
:1001180088285508D60056088316031386044429F0
:100128005408031D9828992844290130D500530AFA
:100138009F280310D50DFF3E031D9D285508FF3A43
:10014800D600560883160313860544295403031D55
:10015800AE28AF28BF280130D500530AB5280310B0
:10016800D50DFF3E031DB3285508D6005608831643
:100178000313870444295408031DC328C4284429A9
:100188000130D500530ACA280310D50DFF3E031DC0
:10019800C8285508FF3AD600560883160313870562
:1001A80044295403031DD928DA28EA280130D50048
:1001B800530AE0280310D50DFF3E031DDE2855081D
:1001C800D600560883160313880444295408031DCF
:1001D800EE28EF2844290130D500530AF5280310EA
:1001E800D50DFF3E031DF3285508FF3AD6005608E3
:1001F80083160313880544295403031D042905297C
:1002080015290130D500530A0B290310D50DFF3EDF
:10021800031D09295508D6005608831603138904B7
:1002280044295408031D19291A2944290130D500E5
:10023800530A20290310D50DFF3E031D1E2955081A
:10024800FF3AD60056088316031389054429570830
:10025800D500D6015608003A031933294429550810
:10026800003A03195428013A03197F28033A03195D
:10027800AA28013A0319D528073A0319002944295D
:10028800080083120313D7000C2A5403031D4D29B9
:100298004E295C290130D500530A54290310D50D85
:1002A800FF3E031D52295508D60056088504252A05
:1002B8005408031D60296129252A0130D500530AF5
:1002C80067290310D50DFF3E031D65295508FF3A20
:1002D800D60056088505252A5403031D7429752957
:1002E80083290130D500530A7B290310D50DFF3E21
:1002F800031D79295508D60056088604252A54086E
:10030800031D87298829252A0130D500530A8E29FB
:100318000310D50DFF3E031D8C295508FF3AD60062
:1003280056088605252A5403031D9B299C29AA29BA
:100338000130D500530AA2290310D50DFF3E031D35
:10034800A0295508D60056088704252A5408031DF5
:10035800AE29AF29252A0130D500530AB529031043
:10036800D50DFF3E031DB3295508FF3AD6005608A0
:100378008705252A5403031DC229C329D129013021
:10038800D500530AC9290310D50DFF3E031DC729FF
:100398005508D60056088804252A5408031DD5296F
:1003A800D629252A0130D500530ADC290310D50D9A
:1003B800FF3E031DDA295508FF3AD600560888057E
:1003C800252A5403031DE929EA29F8290130D50013
:1003D800530AF0290310D50DFF3E031DEE295508D9
:1003E800D60056088904252A5408031DFC29FD292E
:1003F800252A0130D500530A032A0310D50DFF3EE4
:10040800031D012A5508FF3AD60056088905252AF2
:100418005708D500D6015608003A0319142A252A88
:100428005508003A03194929013A03197029033A72
:1004380003199729013A0319BE29073A0319E5292F
:10044800252A0800FA010D30F4007408F0007A0833
:100458000A128A15D5240A128A11203E84008313B1
:1004680000080319382A392AEA2A0D30F4007408DA
:10047800F0007A080A128A15D5240A128A11213E38
:10048800840083130008F500840A0008F600840A33
:100498000008F700840A0008F80078087704760452
:1004A8007504031D582A592ACA2A0D30F400740805
:1004B800F0007A080A128A15D5240A128A11293EF0
:1004C8008400013083138007840A00300318013E3A
:1004D800031D8007840A00300318013E031D8007AE
:1004E800840A00300318013E80070D30F4007408B8
:1004F800F0007A080A128A15D5240A128A11253EB4
:10050800840083130008F500840A0008F600840AB2
:100518000008F700840A0008F800780877047604D1
:1005280075040319982A992AEA2A0D30F4007408E8
:10053800F0007A080A128A15D5240A128A11253E73
:10054800840083130008F500840A0008F600840A72
:100558000008F700840A0008F8000D30F90079084F
:10056800F0007A080A128A15D5240A128A11213E47
:100578008400750883138000840A76088000840A42
:1005880077088000840A78088000EA2A0D30F40091
:100598007408F0007A080A128A15D5240A128A11FA
:1005A800213E8400013083138002840A0030031C3A
:1005B80001308002840A0030031C01308002840A62
:1005C8000030031C01308002033084020130F40043
:1005D8007408FA0703307A02031CF32AF42A272A3C
:1005E8000800023083120313DA005A08D6000130DB
:1005F8000A128A1531250A128A11003A031D052BA1
:10060800062B452B831203134C08031D0C2B0D2BB3
:10061800452B01300A128A1582240A128A11831284
:100628000313CC01CC0A6508053EDA000030031834
:100638000130DB005B08803AFF0080307F02031D39
:10064800272B50305A0203182A2B2B2B902B83125E
:1006580003136508053EDA005A08D50000300A126F
:100668008A151A260A128A11053083120313DA0032
:100678005A08E50765080A128A158C240A128A1195
:10068800902B83120313D601D60A01300A128A1559
:1006980031250A128A11003A031D532B542B902B33
:1006A800831203134C08031D5A2B5B2B902B01302C
:1006B8000A128A1582240A128A1183120313CC01A2
:1006C800CC0A6508FB3EDA00FF3003180030DB0077
:1006D8005B08803AFF0080307F02031D752B1F30B6
:1006E8005A02031C782B792B902B8312031365086D
:1006F800FB3EDA005A08D50000300A128A151A267D
:100708000A128A11053083120313E50265080A12DA
:100718008A158C240A128A11023083120313DA0014
:100728005A08D60001300A128A1531250A128A1190
:10073800003A0319A02BA12BB32B83120313D60164
:10074800D60A01300A128A1531250A128A11003A8E
:100758000319AF2BB02BB32B83120313CC01080062
:10076800831203136608031DBA2BBB2BD42B02304C
:10077800DB005B08D300D40100300A128A1145213E
:100788000A128A11033083120313DB005B08D300BB
:10079800D40100300A128A1145210A128A11662CE6
:1007A8000A30D3000030D4004A08D6004908D500E2
:1007B8000A128A11BE270A128A11831203135308D8
:1007C800DB005B08DC000A30D3000030D4004A08A4
:1007D800D6004908D5000A128A15C9260A128A11B4
:1007E800831203135308DB005B08DD000330DB00D2
:1007F8005B08D60000300A128A1531250A128A11C0
:10080800013A031D082C092C382C033083120313DA
:10081800DB005B08D300D40100300A128A1145219D
:100828000A128A11023083120313DB005B08D3001B
:10083800D401D40A00300A128A1145210A128A11F9
:10084800831203135D080A128A1586260A128A1172
:1008580083120313DB005B08D60003300A128A15E3
:10086800ED250A128A11662C023083120313DB006D
:100878005B08D300D40100300A128A1145210A12FC
:100888008A11033083120313DB005B08D300D40101
:10089800D40A00300A128A1145210A128A118312D9
:1008A80003135C080A128A1586260A128A11831213
:1008B8000313DB005B08D60003300A128A15ED2506
:1008C8000A128A11080083120313E3010D30DE00B7
:1008D8005E08D30063080A128A1501250A128A11D4
:1008E800293E84008313000883120313DF00840A5F
:1008F8000008E000840A0008E100840A0008E20019
:100908006208610460045F0403198B2C8C2CEB2CA7
:100918000D30DE005E08D30063080A128A1501252F
:100928000A128A11203E8400831300080A128A11D1
:1009380037200A128A110D3083120313DE005E0875
:10094800D30063080A128A1501250A128A11293E62
:100958008400013083138002840A0030031C0130B4
:100968008002840A0030031C01308002840A0030AF
:10097800031C01308002033084020D3083120313FC
:10098800DE005E08D30063080A128A1501250A12E0
:100998008A11253E84008313000883120313DF00A5
:1009A800840A0008E000840A0008E100840A0008BC
:1009B800E2006208610460045F04031DE42CE52C76
:1009C800EB2C63080A128A1184250A128A11013055
:1009D80083120313DE005E08E30703306302031C7F
:1009E800F62CF72C6A2C080083120313E100E201AD
:1009F800012D0130DF005F08E2070D30DF005F08DE
:100A0800D30062080A128A1501250A128A11203EAB
:100A18008400831300080319122D132D1B2D033096
:100A2800831203136202031C1A2D1B2DFD2C0330A5
:100A3800831203136206031D222D232D242D832DDB
:100A48006108DF000D30E0006008D30062080A1278
:100A58008A1501250A128A11203E84008312031385
:100A68005F08831380000D30DF005F08D300620841
:100A78000A128A1501250A128A11213E840083125E
:100A88000313570883138000840A58088000840AD7
:100A980059088000840A5A0880000D30DF005F087A
:100AA800D30062080A128A1501250A128A11253E06
:100AB8008400831203135B0883138000840A5C0894
:100AC8008000840A5D088000840A5E0880000D307A
:100AD800DF005F08D30062080A128A1501250A128E
:100AE8008A11293E8400003083138000840A003074
:100AF8008000840A00308000840A003080000800EA
:100B080083120313D8000330580203188C2D8D2D3F
:100B1800E92D0D30D7005708D30058080A128A1556
:100B280001250A128A11203E8400831380010D30AA
:100B380083120313D7005708D30058080A128A15DE
:100B480001250A128A11213E840000308313800097
:100B5800840A00308000840A00308000840A003053
:100B680080000D3083120313D7005708D3005808AC
:100B78000A128A1501250A128A11253E84000030BE
:100B880083138000840A00308000840A00308000CB
:100B9800840A003080000D3083120313D7005708F1
:100BA800D30058080A128A1501250A128A11293E0B
:100BB8008400003083138000840A00308000840A97
:100BC80000308000840A0030800008008316031378
:100BD800811281111F2E8316031301108110011138
:100BE800452E83160313011481100111452E831617
:100BF8000313011081140111452E831603130114E8
:100C080081140111452E831603130110811001155B
:100C1800452E83160313011481100115452E8316E2
:100C28000313011081140115452E831603130114B3
:100C380081140115452E831203135408003A031931
:100C4800292E013A0319402E452E5308023A03195A
:100C5800EF2D063A0319F52D0C3A0319FB2D183A16
:100C68000319012E303A0319072E603A03190D2E85
:100C7800C03A0319132E452E5308003A0319192EAA
:100C8800452E8312550803194A2E4B2E4E2E0B174C
:100C98008B178B1608000A128A15C1250A128A11A9
:100CA8000A128A15A7270A128A110A128A15982584
:100CB8000A128A11003083120313DA000030D900B7
:100CC8000030D8001430D7000030DE000030DD00DE
:100CD8000030DC001430DB0005300A128A11F824D9
:100CE8000A128A11003083120313DA000030D90087
:100CF8000030D8000030D7000030DE000030DD00C2
:100D08000030DC001430DB0008300A128A11F824A5
:100D18000A128A11003083120313DA000030D90056
:100D28000030D8000530D7000030DE000030DD008C
:100D38000030DC000530DB0002300A128A11F8248A
:100D48000A128A110A128A1167240A128A11A62E17
:100D58000A128A11122883120313D901D61FB52E3D
:100D6800B62EBD2ED509D609D50A0319D60AD9013A
:100D7800D90AD41FC02EC12EC62ED309D409D30A2E
:100D88000319D40A530854040319CB2ECC2EFB2E76
:100D9800D801D80ADA2E01300310D30DD40DFF3E46
:100DA800031DD02E0130D7005708D807D41FDD2ED9
:100DB800DE2ECF2E54085602031DE42E530855028A
:100DC800031CE72EE82EEE2E5308D5025408031C08
:100DD800D603D60201300310D40CD30CFF3E031DFA
:100DE800EF2E0130D802031DFA2EFB2EDE2E5908F5
:100DF8000319FF2E002F052FD509D609D50A031987
:100E0800D60A5608D4005508D3000800FA308312D1
:100E1800031347064804031D122F132F1B2F4B03E0
:100E2800031D172F182F1B2FCB01C701C8014B0813
:100E380003191F2F202F532F0130C7070318C80A83
:100E48000030C8073230D3000030D4004808D6003C
:100E58004708D5000A128A11BE270A128A1183127E
:100E6800031353085404031D3A2F3B2F592F0A121A
:100E78008A11FA270A128A11013A031D442F452FB5
:100E88004C2F00300A128A154F240A128A11592F42
:100E980001300A128A154F240A128A11592F01307B
:100EA8000A128A154F240A128A110A128A154B242B
:100EB8000A128A110A128A158C240A128A11080049
:100EC8000B1D672F682F6F2F0B117D080A128A11CF
:100ED80047200A128A11831203130C08CD00003030
:100EE8000C180130013E7A2F0310CD0CFF3E031D74
:100EF800782F4D1C802F812F922F0130CD0000308C
:100F08000C180130013E8A2F0310CD0DFF3E031D42
:100F1800882F4D08FF3ACE004E088C050C08CD00EE
:100F280000308C180130013E9B2F0310CD0CFF3E82
:100F3800031D992F4D1CA12FA22FB32F0130CD00D7
:100F480000308C180130013EAB2F0310CD0DFF3E51
:100F5800031DA92F4D08FF3ACE004E088C055208F4
:100F6800FF0051088A00500884004F0E8300FE0ECF
:100F78007E0E090083120313530854040319C52F66
:100F8800C62FF52FD801D80AD42F01300310D30D5E
:100F9800D40DFF3E031DCA2F0130D7005708D807CC
:100FA800D41FD72FD82FC92F54085602031DDE2F60
:100FB80053085502031CE12FE22FE82F5308D502EE
:100FC8005408031CD603D60201300310D40CD30CEA
:100FD800FF3E031DE92F0130D802031DF42FF52F22
:100FE800D82F5608D4005508D300080083120313DD
:040FF800660808007F
:10189000FF343C34013483120313650808008312BB
:1018A0000313D4005408D3005308E6000800831241
:1018B0000313D4005408D3005308FD00080064004B
:1018C0008001840A0406031900340406602C0A12FD
:1018D0008A15A3240A128A1583160313911408008B
:1018E0000A128A15A3240A128A15831603131114E7
:1018F00008000A128A15A3240A128A1583160313F4
:101900001115080083120313D4005408D3005308A0
:10191000CB00C701C801080083120313D500550886
:10192000D300D4015308C9005408CA000800831624
:10193000031391160A128A15A3240A128A15831614
:10194000031311160800831603131419A82CA92CCD
:10195000A32C11081F39031DAE2CAF2CA32C08009B
:1019600083120313D3000A128A15A3240A128A15BC
:1019700083120313530893008C1DBF2CC02CBC2C66
:101980008C11080083120313D3000A128A15A324B2
:101990000A128A15031483120313530D93008C1D2E
:1019A000D22CD32CCF2C8C110800F200F301721C26
:1019B000DA2CDB2CDF2C7008F1007108F307031020
:1019C000F00D0310F20C7208031DE72CE82CD72C45
:1019D000730808000A128A15A3240A128A158316AE
:1019E0000313911583128C1DF62CF72CF22C8C11FD
:1019F0000A128A15A3240A128A15831203131308E4
:101A0000080083120313D600D501561C082D092D9A
:101A10000D2D5308D4005408D5070310D30D03101F
:101A2000D60C5608031D152D162D052D550808003A
:101A300083120313D4000A128A15A3240A128A15EA
:101A4000831203135408D300530793008C1D292DD0
:101A50002A2D262D8C11003083160313111B013003
:101A6000080083120313D80058080A128A156F253C
:101A70000A128A1583120313D7005708D900590890
:101A8000D700560A452D0310D70CFF3E031D432DEA
:101A900057080139080083120313D30103300A12D7
:101AA0008A154F260A128A15023083120313D800B2
:101AB0005808D300D40100300A128A1150200A12AB
:101AC0008A15033083120313D8005808D300D401B9
:101AD00000300A128A1150200A128A150800831257
:101AE0000313D5007D2D0508972D0608972D0708AF
:101AF000972D0808972D0908972D5508D300D40174
:101B00005408003A0319852D962D5308003A0319FD
:101B1000732D013A0319752D033A0319772D013AF4
:101B20000319792D073A03197B2D962D00300800F3
:101B300083120313DA015A080A128A1184250A1241
:101B40008A15013083120313D9005908DA070330CC
:101B50005A02031CAC2DAD2D9B2D01300A128A15A3
:101B600057240A128A15083083120313D300003059
:101B7000D400D501D50A0A128A11EA250A128A155B
:101B80000800033083120313D8005808D300D4018F
:101B9000D40A02300A128A1150200A128A1504301F
:101BA00083120313D8005808D300D401D40A02309A
:101BB0000A128A1150200A128A1583160313910102
:101BC0009401831203139416941514119410141095
:101BD000CF30831603139300080083120313D90038
:101BE000002E56088500192E56088600192E560814
:101BF0008700192E56088800192E56088900192EBC
:101C00005908D700D8015808003A0319082E192E90
:101C10005708003A0319F12D013A0319F42D033A3C
:101C20000319F72D013A0319FA2D073A0319FD2D6F
:101C3000192E080083120313D6000A128A15702485
:101C40000A128A15282E0A128A1567240A128A1582
:101C500050300A128A1518250A128A15003A031DF7
:101C6000322E332E232E00300A128A15B0240A1287
:101C70008A158312031356080A128A15B0240A1211
:101C80008A158312031355080A128A15B0240A1202
:101C90008A150A128A1579240A128A1508008312F5
:101CA0000313D6006C2E5308831603138500852E6C
:101CB0005308831603138600852E530883160313D7
:101CC0008700852E5308831603138800852E53083A
:101CD000831603138900852E5608D400D5015508B4
:101CE000003A0319742E852E5408003A0319532E16
:101CF000013A0319582E033A03195D2E013A0319CC
:101D0000622E073A0319672E852E080083120313EB
:101D1000D500A02E3F30C82E0630C82E5B30C82E0E
:101D20004F30C82E6630C82E6D30C82E7D30C82E7C
:101D30000730C82E7F30C82E6F30C82E0030C82E16
:101D40005508D300D4015408003A0319A82E9E2E3A
:101D50005308003A03198A2E013A03198C2E033ACC
:101D600003198E2E013A0319902E073A0319922E69
:101D7000013A0319942E033A0319962E013A0319D6
:101D8000982E0F3A03199A2E013A03199C2E9E2E73
:101D9000080083120313D801D9015308540403190E
:101DA000D22ED32E0A2FDA01DA0AE12E01300310E7
:101DB000D30DD40DFF3E031DD72E0130D700570899
:101DC000DA07D41FE42EE52ED62E01300310D80DED
:101DD000D90DFF3E031DE62E54085602031DF22EB8
:101DE00053085502031CF52EF62EFD2E5308D5027E
:101DF0005408031CD603D602581401300310D40C27
:101E0000D30CFF3E031DFE2E0130DA02031D092F05
:101E10000A2FE52E5908D4005808D3000800831271
:101E20000313D6000A128A1570240A128A151D2F70
:101E30000A128A1567240A128A1550300A128A1566
:101E400018250A128A15003A031D272F282F182F4C
:101E500000300A128A15B0240A128A15831203135D
:101E600056080A128A15B0240A128A150A128A150F
:101E700067240A128A1550300A128A15C2240A12DF
:101E80008A150A128A15EA240A128A158312031384
:101E9000D5005508D7000A128A1597240A128A1508
:101EA0000A128A1579240A128A1583120313570815
:101EB0000800023083120313DA005A08D300D40159
:101EC000D40A01300A128A1150200A128A1583128C
:101ED0000313D301D30AD401D40A01300A128A11A0
:101EE00050200A128A1500300A128A150F270A128A
:101EF0008A1583120313DA005A08E50023306502BD
:101F0000031C832F842FA22F4C3065020318892FC6
:101F10008A2FA22F0530D3000030D4006508DA00E4
:101F2000DB015A08D5005B08D6000A128A11AF26D9
:101F30000A128A1583120313530854040319A12F9C
:101F4000A22FA62F3C30DA005A08E50008000A123A
:101F50008A1559270A128A1501300A128A154F2448
:101F60000A128A150A128A154B240A128A150A12B5
:101F70008A158C240A128A1583120313D6010130A4
:101F80000A128A15ED250A128A150A128A154B259E
:101F90000A128A15033083120313DC005C08D30095
:101FA000D40101300A128A1150200A128A15043015
:101FB00083120313DC005C08D300D40101300A1241
:101FC0008A1150200A128A15053083120313DC008F
:101FD0005C08D300D40101300A128A1150200A1281
:101FE0008A15053083120313DC005C08D300D4018A
:101FF000D40A01300A128A1145210A128A150800F2
:02400E00723FFF
:00000001FF
