:020000040000FA
:060000000A128A11122809
:10000800FE00030E83120313CD000408CE000A0875
:10001800CF007F08D0000A128A15A62F0A128A116B
:100028001528FB01FC01FD018313203084004B30AF
:100038000A128A11F6270A128A1183010A128A11F2
:10004800442DFF0000308A007F0882072A282B28C9
:100058000A128A11ED2F0A128A11E02AFF000030D5
:100068008A007F08820737280A128A11112A831208
:100078000313D50016295203031D43284428542886
:100088000130D300510A4A280310D30DFF3E031D47
:1000980048285308D40054088316031385042F29CD
:1000A8005208031D582859282F290130D300510A16
:1000B8005F280310D30DFF3E031D5D285308FF3A48
:1000C800D40054088316031385052F295203031DF2
:1000D8006E286F287F280130D300510A7528031035
:1000E800D30DFF3E031D73285308D400540883160C
:1000F800031386042F295208031D832884282F29D7
:100108000130D300510A8A280310D30DFF3E031D86
:1001180088285308FF3AD400540883160313860529
:100128002F295203031D99289A28AA280130D300A1
:10013800510AA0280310D30DFF3E031D9E28530823
:10014800D40054088316031387042F295208031D6B
:10015800AE28AF282F290130D300510AB528031043
:10016800D30DFF3E031DB3285308FF3AD4005408AB
:100178008316031387052F295203031DC428C52896
:10018800D5280130D300510ACB280310D30DFF3EE8
:10019800031DC9285308D400540883160313880480
:1001A8002F295208031DD928DA282F290130D30016
:1001B800510AE0280310D30DFF3E031DDE28530823
:1001C800FF3AD40054088316031388052F295203D5
:1001D800031DEF28F02800290130D300510AF62822
:1001E8000310D30DFF3E031DF4285308D400540810
:1001F8008316031389042F295208031D042905298E
:100208002F290130D300510A0B290310D30DFF3ECB
:10021800031D09295308FF3AD40054088316031311
:1002280089052F295508D300D4015408003A031929
:100238001E292F295308003A03193F28013A0319A8
:100248006A28033A03199528013A0319C028073A7E
:100258000319EB282F29080083120313D500F72967
:100268005203031D3829392947290130D300510A7F
:100278003F290310D30DFF3E031D3D295308D40029
:1002880054088504102A5208031D4B294C29102AAA
:100298000130D300510A52290310D30DFF3E031D2C
:1002A80050295308FF3AD40054088505102A5203F0
:1002B800031D5F2960296E290130D300510A662980
:1002C8000310D30DFF3E031D64295308D4005408BE
:1002D8008604102A5208031D72297329102A013036
:1002E800D300510A79290310D30DFF3E031D772946
:1002F8005308FF3AD40054088605102A5203031DF8
:100308008629872995290130D300510A8D290310A0
:10031800D30DFF3E031D8B295308D40054088704CE
:10032800102A5208031D99299A29102A0130D3004E
:10033800510AA0290310D30DFF3E031D9E2953081F
:10034800FF3AD40054088705102A5203031DAD292B
:10035800AE29BC290130D300510AB4290310D30DAA
:10036800FF3E031DB2295308D40054088804102AFC
:100378005208031DC029C129102A0130D300510A8F
:10038800C7290310D30DFF3E031DC5295308FF3AA3
:10039800D40054088805102A5203031DD429D529EE
:1003A800E3290130D300510ADB290310D30DFF3EA6
:1003B800031DD9295308D40054088904102A520867
:1003C800031DE729E829102A0130D300510AEE2934
:1003D8000310D30DFF3E031DEC295308FF3AD40048
:1003E80054088905102A5508D300D4015408003A46
:1003F8000319FF29102A5308003A03193429013A2E
:1004080003195B29033A03198229013A0319A92917
:10041800073A0319D029102A0800FA010D30F40010
:100428007408F0007A080A128A1571260A128A11CD
:10043800203E8400831300080319232A242AD52A7E
:100448000D30F4007408F0007A080A128A15712633
:100458000A128A11213E840083130008F500840AD9
:100468000008F600840A0008F700840A0008F8006B
:100478007808770476047504031D432A442AB52AAC
:100488000D30F4007408F0007A080A128A157126F3
:100498000A128A11293E8400013083138007840AD6
:1004A80000300318013E031D8007840A003003183A
:1004B800013E031D8007840A00300318013E8007AF
:1004C8000D30F4007408F0007A080A128A157126B3
:1004D8000A128A11253E840083130008F500840A55
:1004E8000008F600840A0008F700840A0008F800EB
:1004F80078087704760475040319832A842AD52A90
:100508000D30F4007408F0007A080A128A15712672
:100518000A128A11253E840083130008F500840A14
:100528000008F600840A0008F700840A0008F800AA
:100538000D30F9007908F0007A080A128A15712638
:100548000A128A11213E8400750883138000840AE8
:1005580076088000840A77088000840A780880007A
:10056800D52A0D30F4007408F0007A080A128A15AA
:1005780071260A128A11213E8400013083138002F9
:10058800840A0030031C01308002840A0030031CF6
:1005980001308002840A0030031C013080020330DD
:1005A80084020130F4007408FA0703307A02031C4D
:1005B800DE2ADF2A122A0800033083120313D80028
:1005C8005808D40001300A128A15B7260A128A116F
:1005D800003A031DF02AF12A242B83120313490839
:1005E800031DF72AF82A242B0130D8005808C9001F
:1005F8004A08053ED800003003180130D9005908D0
:10060800803AFF0080307F02031D0C2B50305802C7
:1006180003180F2B102B652B831203134A08053E72
:10062800D8005808D10000300A128A1574270A1217
:100638008A11053083120313D8005808CA07652B9E
:10064800043083120313D8005808D40001300A126A
:100658008A15B7260A128A11003A031D342B352B46
:10066800652B831203134908031D3B2B3C2B652B79
:100678000130D8005808C9004A08FB3ED800FF30AE
:1006880003180030D9005908803AFF0080307F02F3
:10069800031D502B1F305802031C532B542B652B62
:1006A800831203134A08FB3ED8005808D1000030D3
:1006B8000A128A1574270A128A1105308312031345
:1006C800CA02033083120313D8005808D40001303B
:1006D8000A128A15B7260A128A11003A0319752BCD
:1006E800762B8A2B043083120313D8005808D400C1
:1006F80001300A128A15B7260A128A11003A03191C
:10070800862B872B8A2B83120313C90108008312B7
:100718000313DF000A30D1000030D2005F08DA008E
:10072800DB015A08D3005B08D4000A128A115B2740
:100738000A128A11831203135108DC005C08DD00D9
:100748000A30D1000030D2005F08DA00DB015A0815
:10075800D3005B08D4000A128A11C6250A128A112E
:10076800831203135108DC005C08DE000330DA0052
:100778005A08D40000300A128A15B7260A128A11BC
:10078800003A0319C82BC92BF82B02308312031324
:10079800DA005A08D100D201D20A00300A128A11AE
:1007A80030210A128A11033083120313DA005A081F
:1007B800D100D20100300A128A1130210A128A119E
:1007C800831203135E080A128A11FA260A128A1182
:1007D80083120313DA005A08D40003300A128A1568
:1007E80047270A128A11262C023083120313DA00D3
:1007F8005A08D100D20100300A128A1130210A1297
:100808008A11033083120313DA005A08D100D20187
:10081800D20A00300A128A1130210A128A11831270
:1008280003135D080A128A11FA260A128A11831222
:100838000313DA005A08D40003300A128A1547272E
:100848000A128A11080083120313E5010D30E00033
:100858006008D10065080A128A1586260A128A11CC
:10086800293E84008313000883120313E100840ADD
:100878000008E200840A0008E300840A0008E40093
:10088800640863046204610403194B2C4C2CAB2CE0
:100898000D30E0006008D10065080A128A15862626
:1008A8000A128A11203E8400831300080A128A1152
:1008B80025200A128A110D3083120313E000600804
:1008C800D10065080A128A1586260A128A11293E5D
:1008D8008400013083138002840A0030031C013035
:1008E8008002840A0030031C01308002840A003030
:1008F800031C01308002033084020D30831203137D
:10090800E0006008D10065080A128A1586260A12D6
:100918008A11253E84008313000883120313E10023
:10092800840A0008E200840A0008E300840A000838
:10093800E4006408630462046104031DA42CA52C6C
:10094800AB2C65080A128A112F260A128A11013067
:1009580083120313E0006008E50703306502031CF7
:10096800B62CB72C2A2C080083120313DF00E001F1
:10097800C12C0130DD005D08E0070D30DD005D08A9
:10098800D10060080A128A1586260A128A11203EAA
:100998008400831300080319D22CD32CDB2C0330DA
:1009A800831203136002031CDA2CDB2CBD2C0330EA
:1009B800831203136006031DE22CE32CE42C432D61
:1009C8005F08DD000D30DE005E08D10060080A1205
:1009D8008A1586260A128A11203E84008312031380
:1009E8005D08831380000D30DD005D08D1006008CC
:1009F8000A128A1586260A128A11213E8400831259
:100A08000313550883138000840A56088000840A5B
:100A180057088000840A580880000D30DD005D0802
:100A2800D10060080A128A1586260A128A11253E04
:100A3800840083120313590883138000840A5A0818
:100A48008000840A5B088000840A5C0880000D30FE
:100A5800DD005D08D10060080A128A1586260A1290
:100A68008A11293E8400003083138000840A0030F4
:100A78008000840A00308000840A0030800008006A
:100A88000A128A15D1260A128A11FF30831203131B
:100A9800E6006608D10001300A128A11B6270A1248
:100AA8008A1100300A128A159D260A128A118312A9
:100AB8000313E6006608CA0023304A02031C652DAA
:100AC800662D842D4C304A0203186B2D6C2D842D15
:100AD8000530D1000030D2004A08E600E701660878
:100AE800D3006708D4000A128A115B270A128A11F8
:100AF80083120313510852040319832D842D882D62
:100B08003C30E6006608CA000A128A151E270A1237
:100B18008A11003083120313D8000030D700003048
:100B2800D6000130D5000030DC000030DB0000309A
:100B3800DA000130D90005300A128A11B8240A12E5
:100B48008A11003083120313D8000030D700003018
:100B5800D6000A30D5000030DC000030DB00003061
:100B6800DA000A30D90002300A128A11B8240A12AF
:100B78008A110A128A1127240A128A11BD2D0A1213
:100B88008A11122883120313D701D21FCC2DCD2D21
:100B9800D42DD109D209D10A0319D20AD701D70A0B
:100BA800D41FD72DD82DE12DD309D409D30A031981
:100BB800D40A0130D5005508D706D801D901510803
:100BC80052040319E82DE92D202ED601D60AF72D57
:100BD80001300310D10DD20DFF3E031DED2D013064
:100BE800D5005508D607D21FFA2DFB2DEC2D013064
:100BF8000310D80DD90DFF3E031DFC2D52085402D9
:100C0800031D082E51085302031C0B2E0C2E132E05
:100C18005108D3025208031CD403D40258140130DB
:100C28000310D20CD10CFF3E031D142E0130D60246
:100C3800031D1F2E202EFB2D57080319242E252EA9
:100C48002A2ED809D909D80A0319D90A5908D2006D
:100C58005808D100080083120313D6000330560247
:100C68000318372E382E942E0D30D5005508D10094
:100C780056080A128A1586260A128A11203E84000E
:100C8800831380010D3083120313D5005508D1005A
:100C980056080A128A1586260A128A11213E8400ED
:100CA800003083138000840A00308000840A0030FA
:100CB8008000840A003080000D3083120313D500B1
:100CC8005508D10056080A128A1586260A128A1172
:100CD800253E8400003083138000840A00308000A1
:100CE800840A00308000840A003080000D308312AE
:100CF8000313D5005508D10056080A128A1586260E
:100D08000A128A11293E8400003083138000840A65
:100D180000308000840A00308000840A003080009F
:100D280008008316031381128111CA2E8316031338
:100D3800011081100111F02E831603130114811084
:100D48000111F02E83160313011081140111F02EE6
:100D580083160313011481140111F02E8316031353
:100D6800011081100115F02E831603130114811050
:100D78000115F02E83160313011081140115F02EAE
:100D880083160313011481140115F02E8312031323
:100D98005208003A0319D42E013A0319EB2EF02E0B
:100DA8005108023A03199A2E063A0319A02E0C3A52
:100DB8000319A62E183A0319AC2E303A0319B22E8D
:100DC800603A0319B82EC03A0319BE2EF02E510806
:100DD800003A0319C42EF02E831253080319F52E76
:100DE800F62EF92E0B178B178B1608008312031398
:100DF800D300202F3F305A2F06305A2F5B305A2FFE
:100E08004F305A2F66305A2F6D305A2F7D305A2F57
:100E180007305A2F7F305A2F6F305A2F77305A2F7A
:100E28007C305A2F58305A2F5E305A2F79305A2F2B
:100E380071305A2F00305A2F5308D100D20152086E
:100E4800003A0319282F1E2F5108003A0319FE2EC5
:100E5800013A0319002F033A0319022F013A031923
:100E6800042F073A0319062F013A0319082F033AEA
:100E780003190A2F013A03190C2F0F3A03190E2FE1
:100E8800013A0319102F033A0319122F013A0319D3
:100E9800142F073A0319162F013A0319182F033A8A
:100EA80003191A2F013A03191C2F1E2F0800831249
:100EB8000313D701D41F612F622F692FD309D409D7
:100EC800D30A0319D40AD701D70AD21F6C2F6D2F62
:100ED800722FD109D209D10A0319D20A5108520432
:100EE8000319772F782FA72FD601D60A862F01301E
:100EF8000310D10DD20DFF3E031D7C2F0130D5000C
:100F08005508D607D21F892F8A2F7B2F52085402E3
:100F1800031D902F51085302031C932F942F9A2FCF
:100F28005108D3025208031CD403D4020130031021
:100F3800D20CD10CFF3E031D9B2F0130D602031D9E
:100F4800A62FA72F8A2F57080319AB2FAC2FB12F25
:100F5800D309D409D30A0319D40A5408D200530870
:100F6800D100080083120313D400D32F510883162D
:100F780003138500EC2F5108831603138600EC2F0A
:100F88005108831603138700EC2F510883160313A7
:100F98008800EC2F5108831603138900EC2F54089E
:100FA800D200D3015308003A0319DB2FEC2F520863
:100FB800003A0319BA2F013A0319BF2F033A03194C
:100FC800C42F013A0319C92F073A0319CE2FEC2F62
:100FD8000800831203134A080A128A118B230A1283
:100FE8008A11080064008001840A04060319003489
:040FF8000406F72FC5
:101CD20083120313D2005208D1005108FD000800FC
:101CE200F200F301721C762E772E7B2E7008F10023
:101CF2007108F3070310F00D0310F20C7208031DB4
:101D0200832E842E732E7308080083120313D400CB
:101D1200D301541C8D2E8E2E922E5108D2005208C1
:101D2200D3070310D10D0310D40C5408031D9A2EAF
:101D32009B2E8A2E5308080083120313D1008316A8
:101D420003170C18A52EA62EA02E8C18A92EAA2E8B
:101D5200A02E831203135108831203178D008316DA
:101D620003170C14831203170C08080083120313C1
:101D7200D60056080A128A15F5260A128A15831207
:101D82000313D5005508D7005708D500540ACB2EA7
:101D92000310D50CFF3E031DC92E5508013908005A
:101DA20083120313D10103300A128A11B6270A12D1
:101DB2008A15023083120313D6005608D100D201CD
:101DC20000300A128A113B200A128A15033083124C
:101DD2000313D6005608D100D20100300A128A112C
:101DE2003B200A128A15080083120313D300032F23
:101DF20005081D2F06081D2F07081D2F08081D2F77
:101E020009081D2F5308D100D2015208003A0319C4
:101E12000B2F1C2F5108003A0319F92E013A03190E
:101E2200FB2E033A0319FD2E013A0319FF2E073A3E
:101E32000319012F1C2F0030080083120313D8014D
:101E420058080A128A112F260A128A1501308312A3
:101E52000313D7005708D80703305802031C322F48
:101E6200332F212F01300A128A1569260A128A1588
:101E7200083083120313D1000030D200D301D30AF9
:101E82000A128A1195260A128A1508008312031370
:101E9200D7005A2F54088500732F54088600732FD9
:101EA20054088700732F54088800732F5408890040
:101EB200732F5708D500D6015608003A0319622F2E
:101EC200732F5508003A03194B2F013A03194E2F6D
:101ED200033A0319512F013A0319542F073A0319F0
:101EE200572F732F080083120313D2008316031790
:101EF2008C187C2F7D2F772F8312031352088312A5
:101F020003178D00831203135108831203178C00E9
:101F1200831603170C1500308B1B01308312031339
:101F2200D3008B135530831603178D00AA308D0012
:101F32008C148312031353189F2FA12F8B17A22FD8
:101F42008B13831603170C1108000B1DA92FAA2F40
:101F5200B12F0B117D080A128A1132200A128A153A
:101F6200831203130C08CB0000300C180130013E21
:101F7200BC2F0310CB0CFF3E031DBA2F4B1CC22FEC
:101F8200C32FD42F0130CB0000300C180130013E9A
:101F9200CC2F0310CB0DFF3E031DCA2F4B08FF3A77
:101FA200CC004C088C050C08CB0000308C1801309A
:101FB200013EDD2F0310CB0CFF3E031DDB2F4B1C1C
:101FC200E32FE42FF52F0130CB0000308C180130C5
:101FD200013EED2F0310CB0DFF3E031DEB2F4B08EF
:101FE200FF3ACC004C088C055008FF004F088A00CD
:0E1FF2004E0884004D0E8300FE0E7E0E090088
:02400E00723FFF
:00000001FF
