:020000040000FA
:060000000A128A11122809
:10000800FE00030E83120313CD000408CE000A0875
:10001800CF007F08D0000A128A15A62F0A128A116B
:100028001528FB01FC01FD018313203084004B30AF
:100038000A128A1585250A128A1183010A128A1161
:10004800442DFF0000308A007F0882072A282B28C9
:100058000A128A15A82D0A128A11E02AFF00003018
:100068008A007F08820737280A128A11112A831208
:100078000313D50016295203031D43284428542886
:100088000130D300510A4A280310D30DFF3E031D47
:1000980048285308D40054088316031385042F29CD
:1000A8005208031D582859282F290130D300510A16
:1000B8005F280310D30DFF3E031D5D285308FF3A48
:1000C800D40054088316031385052F295203031DF2
:1000D8006E286F287F280130D300510A7528031035
:1000E800D30DFF3E031D73285308D400540883160C
:1000F800031386042F295208031D832884282F29D7
:100108000130D300510A8A280310D30DFF3E031D86
:1001180088285308FF3AD400540883160313860529
:100128002F295203031D99289A28AA280130D300A1
:10013800510AA0280310D30DFF3E031D9E28530823
:10014800D40054088316031387042F295208031D6B
:10015800AE28AF282F290130D300510AB528031043
:10016800D30DFF3E031DB3285308FF3AD4005408AB
:100178008316031387052F295203031DC428C52896
:10018800D5280130D300510ACB280310D30DFF3EE8
:10019800031DC9285308D400540883160313880480
:1001A8002F295208031DD928DA282F290130D30016
:1001B800510AE0280310D30DFF3E031DDE28530823
:1001C800FF3AD40054088316031388052F295203D5
:1001D800031DEF28F02800290130D300510AF62822
:1001E8000310D30DFF3E031DF4285308D400540810
:1001F8008316031389042F295208031D042905298E
:100208002F290130D300510A0B290310D30DFF3ECB
:10021800031D09295308FF3AD40054088316031311
:1002280089052F295508D300D4015408003A031929
:100238001E292F295308003A03193F28013A0319A8
:100248006A28033A03199528013A0319C028073A7E
:100258000319EB282F29080083120313D500F72967
:100268005203031D3829392947290130D300510A7F
:100278003F290310D30DFF3E031D3D295308D40029
:1002880054088504102A5208031D4B294C29102AAA
:100298000130D300510A52290310D30DFF3E031D2C
:1002A80050295308FF3AD40054088505102A5203F0
:1002B800031D5F2960296E290130D300510A662980
:1002C8000310D30DFF3E031D64295308D4005408BE
:1002D8008604102A5208031D72297329102A013036
:1002E800D300510A79290310D30DFF3E031D772946
:1002F8005308FF3AD40054088605102A5203031DF8
:100308008629872995290130D300510A8D290310A0
:10031800D30DFF3E031D8B295308D40054088704CE
:10032800102A5208031D99299A29102A0130D3004E
:10033800510AA0290310D30DFF3E031D9E2953081F
:10034800FF3AD40054088705102A5203031DAD292B
:10035800AE29BC290130D300510AB4290310D30DAA
:10036800FF3E031DB2295308D40054088804102AFC
:100378005208031DC029C129102A0130D300510A8F
:10038800C7290310D30DFF3E031DC5295308FF3AA3
:10039800D40054088805102A5203031DD429D529EE
:1003A800E3290130D300510ADB290310D30DFF3EA6
:1003B800031DD9295308D40054088904102A520867
:1003C800031DE729E829102A0130D300510AEE2934
:1003D8000310D30DFF3E031DEC295308FF3AD40048
:1003E80054088905102A5508D300D4015408003A46
:1003F8000319FF29102A5308003A03193429013A2E
:1004080003195B29033A03198229013A0319A92917
:10041800073A0319D029102A0800FA010D30F40010
:100428007408F0007A080A128A15E2250A128A115D
:10043800203E8400831300080319232A242AD52A7E
:100448000D30F4007408F0007A080A128A15E225C3
:100458000A128A11213E840083130008F500840AD9
:100468000008F600840A0008F700840A0008F8006B
:100478007808770476047504031D432A442AB52AAC
:100488000D30F4007408F0007A080A128A15E22583
:100498000A128A11293E8400013083138007840AD6
:1004A80000300318013E031D8007840A003003183A
:1004B800013E031D8007840A00300318013E8007AF
:1004C8000D30F4007408F0007A080A128A15E22543
:1004D8000A128A11253E840083130008F500840A55
:1004E8000008F600840A0008F700840A0008F800EB
:1004F80078087704760475040319832A842AD52A90
:100508000D30F4007408F0007A080A128A15E22502
:100518000A128A11253E840083130008F500840A14
:100528000008F600840A0008F700840A0008F800AA
:100538000D30F9007908F0007A080A128A15E225C8
:100548000A128A11213E8400750883138000840AE8
:1005580076088000840A77088000840A780880007A
:10056800D52A0D30F4007408F0007A080A128A15AA
:10057800E2250A128A11213E840001308313800289
:10058800840A0030031C01308002840A0030031CF6
:1005980001308002840A0030031C013080020330DD
:1005A80084020130F4007408FA0703307A02031C4D
:1005B800DE2ADF2A122A0800033083120313D80028
:1005C8005808D40001300A128A153E260A128A11E8
:1005D800003A031DF02AF12A242B83120313490839
:1005E800031DF72AF82A242B0130D8005808C9001F
:1005F8004A08053ED800003003180130D9005908D0
:10060800803AFF0080307F02031D0C2B50305802C7
:1006180003180F2B102B652B831203134A08053E72
:10062800D8005808D30000300A128A1527270A1262
:100638008A11053083120313D8005808CA07652B9E
:10064800043083120313D8005808D40001300A126A
:100658008A153E260A128A11003A031D342B352BBF
:10066800652B831203134908031D3B2B3C2B652B79
:100678000130D8005808C9004A08FB3ED800FF30AE
:1006880003180030D9005908803AFF0080307F02F3
:10069800031D502B1F305802031C532B542B652B62
:1006A800831203134A08FB3ED8005808D3000030D1
:1006B8000A128A1527270A128A1105308312031392
:1006C800CA02033083120313D8005808D40001303B
:1006D8000A128A153E260A128A11003A0319752B46
:1006E800762B8A2B043083120313D8005808D400C1
:1006F80001300A128A153E260A128A11003A031995
:10070800862B872B8A2B83120313C90108008312B7
:100718000313DF000A30D1000030D2005F08DA008E
:10072800DB015A08D3005B08D4000A128A1160273B
:100738000A128A11831203135108DC005C08DD00D9
:100748000A30D1000030D2005F08DA00DB015A0815
:10075800D3005B08D4000A128A11CB250A128A1129
:10076800831203135108DC005C08DE000330DA0052
:100778005A08D40000300A128A153E260A128A1135
:10078800003A0319C82BC92BF82B02308312031324
:10079800DA005A08D100D201D20A00300A128A11AE
:1007A80030210A128A11033083120313DA005A081F
:1007B800D100D20100300A128A1130210A128A119E
:1007C800831203135E080A128A11FF260A128A117D
:1007D80083120313DA005A08D40003300A128A1568
:1007E800FA260A128A11262C023083120313DA0021
:1007F8005A08D100D20100300A128A1130210A1297
:100808008A11033083120313DA005A08D100D20187
:10081800D20A00300A128A1130210A128A11831270
:1008280003135D080A128A11FF260A128A1183121D
:100838000313DA005A08D40003300A128A15FA267C
:100848000A128A11080083120313E5010D30E00033
:100858006008D10065080A128A150E260A128A1144
:10086800293E84008313000883120313E100840ADD
:100878000008E200840A0008E300840A0008E40093
:10088800640863046204610403194B2C4C2CAB2CE0
:100898000D30E0006008D10065080A128A150E269E
:1008A8000A128A11203E8400831300080A128A1152
:1008B80025200A128A110D3083120313E000600804
:1008C800D10065080A128A150E260A128A11293ED5
:1008D8008400013083138002840A0030031C013035
:1008E8008002840A0030031C01308002840A003030
:1008F800031C01308002033084020D30831203137D
:10090800E0006008D10065080A128A150E260A124E
:100918008A11253E84008313000883120313E10023
:10092800840A0008E200840A0008E300840A000838
:10093800E4006408630462046104031DA42CA52C6C
:10094800AB2C65080A128A1134260A128A11013062
:1009580083120313E0006008E50703306502031CF7
:10096800B62CB72C2A2C080083120313DF00E001F1
:10097800C12C0130DD005D08E0070D30DD005D08A9
:10098800D10060080A128A150E260A128A11203E22
:100998008400831300080319D22CD32CDB2C0330DA
:1009A800831203136002031CDA2CDB2CBD2C0330EA
:1009B800831203136006031DE22CE32CE42C432D61
:1009C8005F08DD000D30DE005E08D10060080A1205
:1009D8008A150E260A128A11203E840083120313F8
:1009E8005D08831380000D30DD005D08D1006008CC
:1009F8000A128A150E260A128A11213E84008312D1
:100A08000313550883138000840A56088000840A5B
:100A180057088000840A580880000D30DD005D0802
:100A2800D10060080A128A150E260A128A11253E7C
:100A3800840083120313590883138000840A5A0818
:100A48008000840A5B088000840A5C0880000D30FE
:100A5800DD005D08D10060080A128A150E260A1208
:100A68008A11293E8400003083138000840A0030F4
:100A78008000840A00308000840A0030800008006A
:100A88000A128A1558260A128A110A128A15CE26BF
:100A98000A128A11FF3083120313E6006608D10098
:100AA80001300A128A11BB270A128A1100300A1271
:100AB8008A155C270A128A1183120313E600660856
:100AC800CA0023304A02031C6A2D6B2D892D4C3035
:100AD8004A020318702D712D892D0530D100003080
:100AE800D2004A08E600E7016608D3006708D40088
:100AF8000A128A1160270A128A11831203135108F5
:100B080052040319882D892D8D2D3C30E600660886
:100B1800CA000A128A15A5260A128A110030831201
:100B28000313D8000030D7000030D6000130D500BC
:100B38000030DC000030DB000030DA000130D90082
:100B480005300A128A11B8240A128A110030831259
:100B58000313D8000030D7000030D6000A30D50083
:100B68000030DC000030DB000030DA000A30D90049
:100B780002300A128A11B8240A128A110A128A113A
:100B880027240A128A11C22D0A128A1112288312E6
:100B98000313D701D21FD12DD22DD92DD109D209B6
:100BA800D10A0319D20AD701D70AD41FDC2DDD2DAB
:100BB800E62DD309D409D30A0319D40A0130D50084
:100BC8005508D706D801D901510852040319ED2D4B
:100BD800EE2D252ED601D60AFC2D01300310D10D9D
:100BE800D20DFF3E031DF22D0130D5005508D60762
:100BF800D21FFF2D002EF12D01300310D80DD90D75
:100C0800FF3E031D012E52085402031D0D2E5108EC
:100C18005302031C102E112E182E5108D30252080D
:100C2800031CD403D402581401300310D20CD10C85
:100C3800FF3E031D192E0130D602031D242E252E3A
:100C4800002E57080319292E2A2E2F2ED809D90924
:100C5800D80A0319D90A5908D2005808D10008003F
:100C680083120313D6000330560203183C2E3D2E80
:100C7800992E0D30D5005508D10056080A128A154C
:100C88000E260A128A11203E8400831380010D303B
:100C980083120313D5005508D10056080A128A1585
:100CA8000E260A128A11213E840000308313800028
:100CB800840A00308000840A00308000840A0030F2
:100CC80080000D3083120313D5005508D100560853
:100CD8000A128A150E260A128A11253E840000304F
:100CE80083138000840A00308000840A003080006A
:100CF800840A003080000D3083120313D500550894
:100D0800D10056080A128A150E260A128A11293E9F
:100D18008400003083138000840A00308000840A35
:100D280000308000840A0030800008008316031316
:100D380081128111CF2E8316031301108110011126
:100D4800F52E83160313011481100111F52E831655
:100D58000313011081140111F52E831603130114D6
:100D680081140111F52E831603130110811001154A
:100D7800F52E83160313011481100115F52E831621
:100D88000313011081140115F52E831603130114A2
:100D980081140115F52E831203135208003A031922
:100DA800D92E013A0319F02EF52E5108023A0319EB
:100DB8009F2E063A0319A52E0C3A0319AB2E183AA2
:100DC8000319B12E303A0319B72E603A0319BD2E14
:100DD800C03A0319C32EF52E5108003A0319C92E3B
:100DE800F52E831253080319FA2EFB2EFE2E0B172D
:100DF8008B178B16080083120313D300252F3F305F
:100E08005F2F06305F2F5B305F2F4F305F2F6630CC
:100E18005F2F6D305F2F7D305F2F07305F2F7F3062
:100E28005F2F6F305F2F77305F2F7C305F2F583008
:100E38005F2F5E305F2F79305F2F71305F2F00306A
:100E48005F2F5308D100D2015208003A03192D2F01
:100E5800232F5108003A0319032F013A0319052FCC
:100E6800033A0319072F013A0319092F073A0319FF
:100E78000B2F013A03190D2F033A03190F2F013ACB
:100E88000319112F0F3A0319132F013A0319152FBC
:100E9800033A0319172F013A0319192F073A0319AF
:100EA8001B2F013A03191D2F033A03191F2F013A6B
:100EB8000319212F232F080083120313D701D41FEE
:100EC800662F672F6E2FD309D409D30A0319D40AC2
:100ED800D701D70AD21F712F722F772FD109D209C4
:100EE800D10A0319D20A5108520403197C2F7D2F05
:100EF800AC2FD601D60A8B2F01300310D10DD20D9D
:100F0800FF3E031D812F0130D5005508D607D21F9B
:100F18008E2F8F2F802F52085402031D952F5108B2
:100F28005302031C982F992F9F2F5108D302520860
:100F3800031CD403D40201300310D20CD10CFF3EA1
:100F4800031DA02F0130D602031DAB2FAC2F8F2F0E
:100F580057080319B02FB12FB62FD309D409D30AD4
:100F68000319D40A5408D2005308D1000800831288
:100F78000313D400D82F5108831603138500F12FCB
:100F88005108831603138600F12F510883160313A3
:100F98008700F12F5108831603138800F12F510899
:100FA800831603138900F12F5408D200D301530884
:100FB800003A0319E02FF12F5208003A0319BF2F06
:100FC800013A0319C42F033A0319C92F013A031927
:100FD800CE2F073A0319D32FF12F080083160313D6
:100FE8001419F72FF82FF22F11081F39031DFD2FA1
:060FF800FE2FF22F08009D
:101AFA0083120313D2005208D1005108FD000800D6
:101B0A0064008001840A0406031900340406862D41
:101B1A000A128A11F2270A128A15831603139114DC
:101B2A0008000A128A11F2270A128A158316031369
:101B3A00111408000A128A11F2270A128A1583164A
:101B4A00031311150800831203134A080A128A1193
:101B5A008B230A128A1508008316031391160A1298
:101B6A008A11F2270A128A1583160313111608001E
:101B7A0083120313D1000A128A11F2270A128A1554
:101B8A0083120313510893008C1DCC2DCD2DC92D22
:101B9A008C11080083120313D1000A128A11F2274A
:101BAA000A128A15031483120313510D93008C1D14
:101BBA00DF2DE02DDC2D8C110800F200F301721CE0
:101BCA00E72DE82DEC2D7008F1007108F3070310DA
:101BDA00F00D0310F20C7208031DF42DF52DE42DFF
:101BEA00730808000A128A11F2270A128A15831644
:101BFA000313911583128C1D032E042EFF2D8C11B5
:101C0A000A128A11F2270A128A1583120313130879
:101C1A00080083120313D400D301541C152E162E68
:101C2A001A2E5108D2005208D3070310D10D0310FF
:101C3A00D40C5408031D222E232E122E53080800FA
:101C4A0083120313D2000A128A11F2270A128A1582
:101C5A00831203135208D100510793008C1D362EAC
:101C6A00372E332E8C11003083160313111B0130CB
:101C7A00080083120313D60056080A128A157C2616
:101C8A000A128A1583120313D5005508D70057087C
:101C9A00D500540A522E0310D50CFF3E031D502EB8
:101CAA0055080139080083120313D10103300A12BF
:101CBA008A11BB270A128A15023083120313D6002F
:101CCA005608D100D20100300A128A113B200A12AA
:101CDA008A15033083120313D6005608D100D201A5
:101CEA0000300A128A113B200A128A150800831250
:101CFA000313D3008A2E0508A42E0608A42E07086B
:101D0A00A42E0808A42E0908A42E5308D100D20133
:101D1A005208003A0319922EA32E5108003A0319C9
:101D2A00802E013A0319822E033A0319842E013AAE
:101D3A000319862E073A0319882EA32E00300800AD
:101D4A0083120313D80158080A128A1134260A1278
:101D5A008A15013083120313D7005708D8070330B6
:101D6A005802031CB92EBA2EA82E01300A128A155F
:101D7A007D250A128A15083083120313D100003018
:101D8A00D200D301D30A0A128A119A260A128A1594
:101D9A000800033083120313D6005608D100D2017B
:101DAA00D20A02300A128A113B200A128A1504301A
:101DBA0083120313D6005608D100D201D20A023088
:101DCA000A128A113B200A128A15831603139101FB
:101DDA009401831203139416941514119410141079
:101DEA00CF30831603139300080083120313D7001E
:101DFA000D2F54088500262F54088600262F5408D4
:101E0A008700262F54088800262F54088900262F79
:101E1A005708D500D6015608003A0319152F262F60
:101E2A005508003A0319FE2E013A0319012F033A05
:101E3A000319042F013A0319072F073A03190A2F26
:101E4A00262F080083120313D4000A128A15962536
:101E5A000A128A15352F0A128A158D250A128A1531
:101E6A0050300A128A1525260A128A15003A031DCD
:101E7A003F2F402F302F00300A128A15BD250A1233
:101E8A008A158312031354080A128A15BD250A12E9
:101E9A008A158312031353080A128A15BD250A12DA
:101EAA008A150A128A159F250A128A1508008312B2
:101EBA000313D4000A128A1596250A128A156A2F64
:101ECA000A128A158D250A128A1550300A128A15A5
:101EDA0025260A128A15003A031D742F752F652FBD
:101EEA0000300A128A15BD250A128A1583120313B5
:101EFA0054080A128A15BD250A128A150A128A1569
:101F0A008D250A128A1550300A128A15CF250A120F
:101F1A008A150A128A15F7250A128A1583120313DB
:101F2A00D3005308D5000A128A15B1250A128A1558
:101F3A000A128A159F250A128A1583120313550855
:101F4A0008000B1DA92FAA2FB12F0B117D080A1209
:101F5A008A1132200A128A15831203130C08CB0045
:101F6A0000300C180130013EBC2F0310CB0CFF3E91
:101F7A00031DBA2F4B1CC22FC32FD42F0130CB0005
:101F8A0000300C180130013ECC2F0310CB0DFF3E60
:101F9A00031DCA2F4B08FF3ACC004C088C050C08CD
:101FAA00CB0000308C180130013EDD2F0310CB0C22
:101FBA00FF3E031DDB2F4B1CE32FE42FF52F0130CF
:101FCA00CB0000308C180130013EED2F0310CB0DF1
:101FDA00FF3E031DEB2F4B08FF3ACC004C088C0543
:101FEA005008FF004F088A004E0884004D0E8300F7
:061FFA00FE0E7E0E090040
:02400E00723FFF
:00000001FF
