:020000040000FA
:060000000A128A11122809
:10000800FE00030E83120313CC000408CD000A0877
:10001800CE007F08CF000A128A112F2F0A128A11E8
:100028001528FB01FC01FD018313203084004A30B0
:100038000A128A1507250A128A1183010A128A11DF
:10004800182CFF0000308A007F0882072A282B28F6
:100058000A128A11312D0A128A11E02AFF00003093
:100068008A007F08820737280A128A11112A831208
:100078000313D40016295103031D43284428542888
:100088000130D200500A4A280310D20DFF3E031D4A
:1000980048285208D30053088316031385042F29D0
:1000A8005108031D582859282F290130D200500A19
:1000B8005F280310D20DFF3E031D5D285208FF3A4A
:1000C800D30053088316031385052F295103031DF5
:1000D8006E286F287F280130D200500A7528031037
:1000E800D20DFF3E031D73285208D3005308831610
:1000F800031386042F295108031D832884282F29D8
:100108000130D200500A8A280310D20DFF3E031D89
:1001180088285208FF3AD30053088316031386052C
:100128002F295103031D99289A28AA280130D200A3
:10013800500AA0280310D20DFF3E031D9E28520826
:10014800D30053088316031387042F295108031D6E
:10015800AE28AF282F290130D200500AB528031045
:10016800D20DFF3E031DB3285208FF3AD3005308AF
:100178008316031387052F295103031DC428C52897
:10018800D5280130D200500ACB280310D20DFF3EEB
:10019800031DC9285208D300530883160313880483
:1001A8002F295108031DD928DA282F290130D20018
:1001B800500AE0280310D20DFF3E031DDE28520826
:1001C800FF3AD30053088316031388052F295103D8
:1001D800031DEF28F02800290130D200500AF62824
:1001E8000310D20DFF3E031DF4285208D300530814
:1001F8008316031389042F295108031D042905298F
:100208002F290130D200500A0B290310D20DFF3ECE
:10021800031D09295208FF3AD30053088316031314
:1002280089052F295408D200D3015308003A03192D
:100238001E292F295208003A03193F28013A0319A9
:100248006A28033A03199528013A0319C028073A7E
:100258000319EB282F29080083120313D400F72968
:100268005103031D3829392947290130D200500A82
:100278003F290310D20DFF3E031D3D295208D3002C
:1002880053088504102A5108031D4B294C29102AAC
:100298000130D200500A52290310D20DFF3E031D2F
:1002A80050295208FF3AD30053088505102A5103F4
:1002B800031D5F2960296E290130D200500A662982
:1002C8000310D20DFF3E031D64295208D3005308C2
:1002D8008604102A5108031D72297329102A013037
:1002E800D200500A79290310D20DFF3E031D772949
:1002F8005208FF3AD30053088605102A5103031DFC
:100308008629872995290130D200500A8D290310A2
:10031800D20DFF3E031D8B295208D30053088704D2
:10032800102A5108031D99299A29102A0130D20050
:10033800500AA0290310D20DFF3E031D9E29520822
:10034800FF3AD30053088705102A5103031DAD292E
:10035800AE29BC290130D200500AB4290310D20DAD
:10036800FF3E031DB2295208D30053088804102AFF
:100378005108031DC029C129102A0130D200500A92
:10038800C7290310D20DFF3E031DC5295208FF3AA5
:10039800D30053088805102A5103031DD429D529F1
:1003A800E3290130D200500ADB290310D20DFF3EA9
:1003B800031DD9295208D30053088904102A51086B
:1003C800031DE729E829102A0130D200500AEE2936
:1003D8000310D20DFF3E031DEC295208FF3AD3004B
:1003E80053088905102A5408D200D3015308003A4B
:1003F8000319FF29102A5208003A03193429013A2F
:1004080003195B29033A03198229013A0319A92917
:10041800073A0319D029102A0800FA010D30F40010
:100428007408F0007A080A128A1568250A128A11D7
:10043800203E8400831300080319232A242AD52A7E
:100448000D30F4007408F0007A080A128A1568253D
:100458000A128A11213E840083130008F500840AD9
:100468000008F600840A0008F700840A0008F8006B
:100478007808770476047504031D432A442AB52AAC
:100488000D30F4007408F0007A080A128A156825FD
:100498000A128A11293E8400013083138007840AD6
:1004A80000300318013E031D8007840A003003183A
:1004B800013E031D8007840A00300318013E8007AF
:1004C8000D30F4007408F0007A080A128A156825BD
:1004D8000A128A11253E840083130008F500840A55
:1004E8000008F600840A0008F700840A0008F800EB
:1004F80078087704760475040319832A842AD52A90
:100508000D30F4007408F0007A080A128A1568257C
:100518000A128A11253E840083130008F500840A14
:100528000008F600840A0008F700840A0008F800AA
:100538000D30F9007908F0007A080A128A15682542
:100548000A128A11213E8400750883138000840AE8
:1005580076088000840A77088000840A780880007A
:10056800D52A0D30F4007408F0007A080A128A15AA
:1005780068250A128A11213E840001308313800203
:10058800840A0030031C01308002840A0030031CF6
:1005980001308002840A0030031C013080020330DD
:1005A80084020130F4007408FA0703307A02031C4D
:1005B800DE2ADF2A122A0800033083120313D70029
:1005C8005708D30001300A128A11E0270A128A114B
:1005D800003A031DF02AF12A212B8312031349083C
:1005E800031DF72AF82A212B0130D7005708C90024
:1005F8004708053ED70048080318013E003ED800CA
:100608000030580250300319570203180C2B0D2BD9
:10061800612B4708053ED7005708D20000300A1260
:100628008A1592260A128A11053083120313C70706
:100638000318C80A0030C807612B0430831203135B
:10064800D7005708D30001300A128A11E0270A128E
:100658008A11003A031D312B322B612B83120313AD
:100668004908031D382B392B612B0130D700570857
:10067800C9004708FB3ED70048080318013EFF3E63
:10068800D800003058021F3003195702031C4D2BA5
:100698004E2B612B4708FB3ED7005708D20000308D
:1006A8000A128A1592260A128A1105308312031338
:1006B800C7020030031CC803C802033083120313A7
:1006C800D7005708D30001300A128A11E0270A120E
:1006D8008A11003A0319712B722B862B043083126E
:1006E8000313D7005708D30001300A128A11E027F4
:1006F8000A128A11003A0319822B832B862B831244
:100708000313C901080083120313E5010D30E0004B
:100718006008D00065080A128A1594250A128A1101
:10072800293E84008313000883120313E100840A1E
:100738000008E200840A0008E300840A0008E400D4
:1007480064086304620461040319AB2BAC2B0B2C03
:100758000D30E0006008D00065080A128A1594255B
:100768000A128A11203E8400831300080A128A1193
:1007780025200A128A110D3083120313E000600845
:10078800D00065080A128A1594250A128A11293E92
:100798008400013083138002840A0030031C013076
:1007A8008002840A0030031C01308002840A003071
:1007B800031C01308002033084020D3083120313BE
:1007C800E0006008D00065080A128A1594250A120C
:1007D8008A11253E84008313000883120313E10065
:1007E800840A0008E200840A0008E300840A00087A
:1007F800E4006408630462046104031D042C052CEE
:100808000B2C65080A128A11A4250A128A110130D4
:1008180083120313E0006008E50703306502031C38
:10082800162C172C8A2B08000A128A15C7260A12BA
:100838008A110A128A1539260A128A11FF30831280
:100848000313E6006608D00001300A128A15FD2657
:100858000A128A1100300A128A15B6270A128A115A
:1008680083120313E600E7016608C7006708C8009B
:1008780000304802233003194702031C442C452C3E
:10088800632C003048024C300319470203184D2CE2
:100898004E2C632C0530D0000030D1004808D3001E
:1008A8004708D2000A128A1534270A128A118312BD
:1008B8000313500851040319622C632C672C3C3035
:1008C800C7000030C8000A128A1510260A128A11B9
:1008D800003083120313D7000030D6000030D50053
:1008E8000130D4000030DB000030DA000030D900DD
:1008F8000130D80005300A128A11A5240A128A117B
:10090800003083120313D7000030D6000030D50022
:100918000530D4000030DB000030DA000030D900A8
:100928000530D80002300A128A11A5240A128A1149
:100938000A128A1187230A128A119C2C0A128A1118
:10094800122883120313DE00DF01AE2C0130DC0015
:100958005C08DF070D30DC005C08D0005F080A1275
:100968008A1594250A128A11203E840083130008F0
:100978000319BF2CC02CC82C0330831203135F0249
:10098800031CC72CC82CAA2C0330831203135F0640
:10099800031DCF2CD02CD12C302D5E08DC000D305F
:1009A800DD005D08D0005F080A128A1594250A1236
:1009B8008A11203E8400831203135C08831380008D
:1009C8000D30DC005C08D0005F080A128A159425F7
:1009D8000A128A11213E84008312031354088313D8
:1009E8008000840A55088000840A56088000840A1A
:1009F800570880000D30DC005C08D0005F080A1240
:100A08008A1594250A128A11253E8400831203133D
:100A1800580883138000840A59088000840A5A08F9
:100A28008000840A5B0880000D30DC005C08D00080
:100A38005F080A128A1594250A128A11293E840031
:100A4800003083138000840A00308000840A00305C
:100A58008000840A0030800008000A3083120313E3
:100A6800D0000030D1004808D3004708D2000A124D
:100A78008A1534270A128A11831203135008DD00DD
:100A88005D08DE000A30D0000030D1004808D300ED
:100A98004708D2000A128A1570270A128A1183128F
:100AA80003135008DD005D08DF0002300A128A11C6
:100AB800D1260A128A11013A031D632D642D842D53
:100AC80083120313D50102300A128A1189270A12E8
:100AD8008A1183120313D501D50A01300A128A112B
:100AE80089270A128A11831203135F08DD005D0843
:100AF800D90001300A128A15C4250A128A11A32DB9
:100B080083120313D50101300A128A1189270A12A8
:100B18008A1183120313D501D50A02300A128A11E9
:100B280089270A128A11831203135E08DD005D0803
:100B3800D90002300A128A15C4250A128A1108003F
:100B480083120313D500033055020318AC2DAD2DC5
:100B5800092E0D30D4005408D00055080A128A1501
:100B680094250A128A11203E8400831380010D30D7
:100B780083120313D4005408D00055080A128A15AA
:100B880094250A128A11213E8400003083138000C4
:100B9800840A00308000840A00308000840A003013
:100BA80080000D3083120313D4005408D000550878
:100BB8000A128A1594250A128A11253E84000030EB
:100BC80083138000840A00308000840A003080008B
:100BD800840A003080000D3083120313D4005408B7
:100BE800D00055080A128A1594250A128A11293E3E
:100BF8008400003083138000840A00308000840A57
:100C080000308000840A0030800008008316031337
:100C1800811281113F2E83160313011081100111D7
:100C2800652E83160313011481100111652E831696
:100C38000313011081140111652E83160313011487
:100C480081140111652E83160313011081100115FB
:100C5800652E83160313011481100115652E831662
:100C68000313011081140115652E83160313011453
:100C780081140115652E831203135108003A0319D4
:100C8800492E013A0319602E652E5008023A0319BD
:100C98000F2E063A0319152E0C3A03191B2E183A73
:100CA8000319212E303A0319272E603A03192D2EE5
:100CB800C03A0319332E652E5008003A0319392E0D
:100CC800652E8312520803196A2E6B2E6E2E0B178F
:100CD8008B178B16080083120313D200A72E3F3000
:100CE800D0005008D300CF2E0630D0005008D300D3
:100CF800CF2E5B30D0005008D300CF2E4F30D0001D
:100D08005008D300CF2E6630D0005008D300CF2E25
:100D18006D30D0005008D300CF2E7D30D000500861
:100D2800D300CF2E0730D0005008D300CF2E7F300D
:100D3800D0005008D300CF2E6F30D0005008D30019
:100D4800CF2ED301CF2E5208D000D1015108003A3E
:100D58000319AF2EA52E5008003A0319732E013A35
:100D68000319782E033A03197D2E013A0319822EAE
:100D7800073A0319872E013A03198C2E033A0319EF
:100D8800912E013A0319962E0F3A03199B2E013A18
:100D98000319A02EA52E5308080083120313D900A7
:100DA800172F0230D7005708D30000300A128A11D3
:100DB800E0270A128A1183120313D8005808DA00B0
:100DC8002D2F0330D7005708D30000300A128A119C
:100DD800E0270A128A1183120313D8005808DA0090
:100DE8002D2F0430D7005708D30000300A128A117B
:100DF800E0270A128A1183120313D8005808DA0070
:100E08002D2F0530D7005708D30000300A128A1159
:100E1800E0270A128A1183120313D8005808DA004F
:100E28002D2FDA012D2F5908D700D8015808003A7C
:100E380003191F2F152F5708013A0319D52E033A06
:100E48000319E52E013A0319F52E073A0319052F60
:100E5800152F5A0808000B1D322F332F3A2F0B116C
:100E68007D080A128A1132200A128A11831203138A
:100E78000C08CA0000300C180130013E452F031041
:100E8800CA0CFF3E031D432F4A1C4B2F4C2F5D2FCE
:100E98000130CA0000300C180130013E552F0310F4
:100EA800CA0DFF3E031D532F4A08FF3ACB004B08DB
:100EB8008C050C08CA0000308C180130013E662FE2
:100EC8000310CA0CFF3E031D642F4A1C6C2F6D2FA4
:100ED8007E2F0130CA0000308C180130013E762F79
:100EE8000310CA0DFF3E031D742F4A08FF3ACB00BA
:100EF8004B088C054F08FF004E088A004D088400F7
:100F08004C0E8300FE0E7E0E090083120313D800D8
:100F1800C92F0230D6005608D0005508D700570808
:100F2800D10000300A128A1130210A128A11DF2FEB
:100F38000330D6005608D0005508D7005708D1000E
:100F480000300A128A1130210A128A11DF2F043068
:100F5800D6005608D0005508D7005708D1000030F1
:100F68000A128A1130210A128A11DF2F0530D600A1
:100F78005608D0005508D7005708D10000300A128B
:100F88008A1130210A128A11DF2F5808D600D7019A
:100F98005708003A0319D12FDF2F5608013A0319D1
:100FA8008D2F033A03199C2F013A0319AB2F073AE7
:100FB8000319BA2FDF2F080083120313D500550831
:100FC8000A128A15E7250A128A1183120313D4001C
:100FD8005408D6005608D400530AF42F0310D40C32
:0C0FE800FF3E031DF22F540801390800E1
:1019FE0083120313D1005108D0005008FD000800D7
:101A0E0064008001840A0406031900340406082DBC
:101A1E000A128A1536250A128A1583160313911493
:101A2E0008000A128A1536250A128A158316031320
:101A3E00111408000A128A1536250A128A15831601
:101A4E000313111508008316031391160A128A1533
:101A5E0036250A128A1583160313111608008316EB
:101A6E00031314193B2D3C2D362D11081F39031D60
:101A7E00412D422D362D080083120313D0000A1279
:101A8E008A1536250A128A158312031350089300FD
:101A9E008C1D522D532D4F2D8C11080083120313C4
:101AAE00D0000A128A1536250A128A1503148312DB
:101ABE000313500D93008C1D652D662D622D8C1118
:101ACE000800F200F301721C6D2D6E2D722D700840
:101ADE00F1007108F3070310F00D0310F20C7208F9
:101AEE00031D7A2D7B2D6A2D730808000A128A15A4
:101AFE0036250A128A1583160313911583128C1D2F
:101B0E00892D8A2D852D8C110A128A1536250A12D9
:101B1E008A15831203131308080083120313D300CC
:101B2E00D201531C9B2D9C2DA02D5008D100510885
:101B3E00D2070310D00D0310D30C5308031DA82D8C
:101B4E00A92D982D5208080083120313D1000A12F2
:101B5E008A1536250A128A15831203135108D000EE
:101B6E00500793008C1DBC2DBD2DB92D8C1100304E
:101B7E0083160313111B0130080083120313DB00BD
:101B8E0059080A128A116F260A128A158312031334
:101B9E00DA005A08DC00D501D50A5B080A128A1150
:101BAE0089270A128A15831203135C08DA005A0871
:101BBE00D00003300A128A1565260A128A1508000B
:101BCE0083120313D200F52D05080F2E06080F2ED3
:101BDE0007080F2E08080F2E09080F2E5208D000E6
:101BEE00D1015108003A0319FD2D0E2E5008003A6E
:101BFE000319EB2D013A0319ED2D033A0319EF2DBD
:101C0E00013A0319F12D073A0319F32D0E2E003068
:101C1E00080083120313D70157080A128A11A4254C
:101C2E000A128A15013083120313D6005608D707FD
:101C3E0003305702031C242E252E132E01300A12B8
:101C4E008A15FF240A128A15083083120313D00056
:101C5E000030D100D201D20A0A128A110A260A12C3
:101C6E008A150800033083120313D5005508D000DF
:101C7E00D101D10A02300A128A113B200A128A15AA
:101C8E00043083120313D5005508D000D101D10AB8
:101C9E0002300A128A113B200A128A158316031388
:101CAE009101940183120313941694151411941038
:101CBE001410CF30831603139300080083120313FE
:101CCE00D300782E50088500912E50088600912E54
:101CDE0050088700912E50088800912E50088900D8
:101CEE00912E5308D100D2015208003A0319802ECA
:101CFE00912E5108003A0319692E013A03196C2EE0
:101D0E00033A03196F2E013A0319722E073A03197B
:101D1E00752E912E080083120313D3000A128A1512
:101D2E0018250A128A15A02E0A128A150F250A12D4
:101D3E008A1550300A128A15AB250A128A15003AF6
:101D4E00031DAA2EAB2E9B2E00300A128A15432598
:101D5E000A128A158312031353080A128A15432591
:101D6E000A128A158312031352080A128A15432582
:101D7E000A128A150A128A1521250A128A150800D6
:101D8E0083120313D00103300A128A15FD260A129C
:101D9E008A15023083120313D9005908D000D101DD
:101DAE0000300A128A113B200A128A150330831260
:101DBE000313D9005908D000D10100300A128A113C
:101DCE003B200A128A1583120313D50101300A1221
:101DDE008A1189270A128A1583120313D50102303C
:101DEE000A128A1189270A128A1508008312031310
:101DFE00D3001A2F5008831603138500332F500873
:101E0E00831603138600332F50088316031387009F
:101E1E00332F5008831603138800332F5008831670
:101E2E0003138900332F5308D100D2015208003A10
:101E3E000319222F332F5108003A0319012F013AAB
:101E4E000319062F033A03190B2F013A0319102F0A
:101E5E00073A0319152F332F080083120313500866
:101E6E00510403193B2F3C2F6B2FD501D50A4A2F56
:101E7E0001300310D00DD10DFF3E031D402F013058
:101E8E00D4005408D507D11F4D2F4E2F3F2F510888
:101E9E005302031D542F50085202031C572F582F64
:101EAE005E2F5008D2025108031CD303D302013017
:101EBE000310D10CD00CFF3E031D5F2F0130D50255
:101ECE00031D6A2F6B2F4E2F5308D1005208D000DE
:101EDE00080083120313D501D601500851040319CB
:101EEE00792F7A2FB12FD701D70A882F01300310FF
:101EFE00D00DD10DFF3E031D7E2F0130D4005408AE
:101F0E00D707D11F8B2F8C2F7D2F01300310D50DAE
:101F1E00D60DFF3E031D8D2F51085302031D992F21
:101F2E0050085202031C9C2F9D2FA42F5008D20242
:101F3E005108031CD303D302551401300310D10CE6
:101F4E00D00CFF3E031DA52F0130D702031DB02F6D
:101F5E00B12F8C2F5608D1005508D00008008312DF
:101F6E000313D3000A128A1518250A128A15C42FD4
:101F7E000A128A150F250A128A1550300A128A156E
:101F8E00AB250A128A15003A031DCE2FCF2FBF2F75
:101F9E0000300A128A1543250A128A15831203137A
:101FAE0053080A128A1543250A128A150A128A152F
:101FBE000F250A128A1550300A128A1555250A1253
:101FCE008A150A128A157D250A128A1583120313A1
:101FDE00D2005208D4000A128A152A250A128A152E
:101FEE000A128A1521250A128A1583120313540820
:021FFE000800D9
:02400E00723FFF
:00000001FF
