:020000040000FA
:060000000A128A110C280F
:10000800FE00030EF1000A08F2000A128A117E2887
:100018000A128A110F28F70183010A128A119828F7
:10002800F6002F28730883120313850048287308E5
:10003800831203138600482873088312031387006A
:10004800482873088312031388004828730883120A
:100058000313890048287608F400F5017508003A6A
:100068000319372848287408003A03191628013A52
:1000780003191B28033A03192028013A03192528D4
:10008800073A03192A2848280800F6006428730844
:100098008316031385007D287308831603138600CF
:1000A8007D2873088316031387007D287308831639
:1000B800031388007D2873088316031389007D289D
:1000C8007608F400F5017508003A03196C287D28B4
:1000D8007408003A03194B28013A03195028033AC7
:1000E80003195528013A03195A28073A03195F28B2
:1000F8007D280800831203130C1C83288428912868
:100108000C100130F0007008F7070F307706031D58
:100118008E288F289128F701860972088A00710EA7
:100128008300FE0E7E0E0900F30101300A128A11C7
:1001380049200A128A11F30101300A128A11142087
:100148000A128A11831603130C140B178B178312C8
:0A015800031310140A128A110C2878
:02400E00723FFF
:00000001FF
